{
  "_format": "hh-sol-artifact-1",
  "contractName": "Domains",
  "sourceName": "contracts/Domains.sol",
  "abi": [
    {
      "inputs": [
        {
          "internalType": "string",
          "name": "_tld",
          "type": "string"
        }
      ],
      "stateMutability": "payable",
      "type": "constructor"
    },
    {
      "inputs": [],
      "name": "AlreadyRegistered",
      "type": "error"
    },
    {
      "inputs": [
        {
          "internalType": "string",
          "name": "name",
          "type": "string"
        }
      ],
      "name": "InvalidName",
      "type": "error"
    },
    {
      "inputs": [],
      "name": "Unauthorized",
      "type": "error"
    },
    {
      "anonymous": false,
      "inputs": [
        {
          "indexed": true,
          "internalType": "address",
          "name": "owner",
          "type": "address"
        },
        {
          "indexed": true,
          "internalType": "address",
          "name": "approved",
          "type": "address"
        },
        {
          "indexed": true,
          "internalType": "uint256",
          "name": "tokenId",
          "type": "uint256"
        }
      ],
      "name": "Approval",
      "type": "event"
    },
    {
      "anonymous": false,
      "inputs": [
        {
          "indexed": true,
          "internalType": "address",
          "name": "owner",
          "type": "address"
        },
        {
          "indexed": true,
          "internalType": "address",
          "name": "operator",
          "type": "address"
        },
        {
          "indexed": false,
          "internalType": "bool",
          "name": "approved",
          "type": "bool"
        }
      ],
      "name": "ApprovalForAll",
      "type": "event"
    },
    {
      "anonymous": false,
      "inputs": [
        {
          "indexed": true,
          "internalType": "address",
          "name": "from",
          "type": "address"
        },
        {
          "indexed": true,
          "internalType": "address",
          "name": "to",
          "type": "address"
        },
        {
          "indexed": true,
          "internalType": "uint256",
          "name": "tokenId",
          "type": "uint256"
        }
      ],
      "name": "Transfer",
      "type": "event"
    },
    {
      "inputs": [
        {
          "internalType": "address",
          "name": "to",
          "type": "address"
        },
        {
          "internalType": "uint256",
          "name": "tokenId",
          "type": "uint256"
        }
      ],
      "name": "approve",
      "outputs": [],
      "stateMutability": "nonpayable",
      "type": "function"
    },
    {
      "inputs": [
        {
          "internalType": "address",
          "name": "owner",
          "type": "address"
        }
      ],
      "name": "balanceOf",
      "outputs": [
        {
          "internalType": "uint256",
          "name": "",
          "type": "uint256"
        }
      ],
      "stateMutability": "view",
      "type": "function"
    },
    {
      "inputs": [
        {
          "internalType": "string",
          "name": "",
          "type": "string"
        }
      ],
      "name": "domains",
      "outputs": [
        {
          "internalType": "address",
          "name": "",
          "type": "address"
        }
      ],
      "stateMutability": "view",
      "type": "function"
    },
    {
      "inputs": [
        {
          "internalType": "string",
          "name": "name",
          "type": "string"
        }
      ],
      "name": "getAddress",
      "outputs": [
        {
          "internalType": "address",
          "name": "",
          "type": "address"
        }
      ],
      "stateMutability": "view",
      "type": "function"
    },
    {
      "inputs": [],
      "name": "getAllNames",
      "outputs": [
        {
          "internalType": "string[]",
          "name": "",
          "type": "string[]"
        }
      ],
      "stateMutability": "view",
      "type": "function"
    },
    {
      "inputs": [
        {
          "internalType": "uint256",
          "name": "tokenId",
          "type": "uint256"
        }
      ],
      "name": "getApproved",
      "outputs": [
        {
          "internalType": "address",
          "name": "",
          "type": "address"
        }
      ],
      "stateMutability": "view",
      "type": "function"
    },
    {
      "inputs": [
        {
          "internalType": "string",
          "name": "name",
          "type": "string"
        }
      ],
      "name": "getRecord",
      "outputs": [
        {
          "internalType": "string",
          "name": "",
          "type": "string"
        }
      ],
      "stateMutability": "view",
      "type": "function"
    },
    {
      "inputs": [
        {
          "internalType": "address",
          "name": "owner",
          "type": "address"
        },
        {
          "internalType": "address",
          "name": "operator",
          "type": "address"
        }
      ],
      "name": "isApprovedForAll",
      "outputs": [
        {
          "internalType": "bool",
          "name": "",
          "type": "bool"
        }
      ],
      "stateMutability": "view",
      "type": "function"
    },
    {
      "inputs": [],
      "name": "isOwner",
      "outputs": [
        {
          "internalType": "bool",
          "name": "",
          "type": "bool"
        }
      ],
      "stateMutability": "view",
      "type": "function"
    },
    {
      "inputs": [],
      "name": "name",
      "outputs": [
        {
          "internalType": "string",
          "name": "",
          "type": "string"
        }
      ],
      "stateMutability": "view",
      "type": "function"
    },
    {
      "inputs": [
        {
          "internalType": "uint256",
          "name": "",
          "type": "uint256"
        }
      ],
      "name": "names",
      "outputs": [
        {
          "internalType": "string",
          "name": "",
          "type": "string"
        }
      ],
      "stateMutability": "view",
      "type": "function"
    },
    {
      "inputs": [],
      "name": "owner",
      "outputs": [
        {
          "internalType": "address payable",
          "name": "",
          "type": "address"
        }
      ],
      "stateMutability": "view",
      "type": "function"
    },
    {
      "inputs": [
        {
          "internalType": "uint256",
          "name": "tokenId",
          "type": "uint256"
        }
      ],
      "name": "ownerOf",
      "outputs": [
        {
          "internalType": "address",
          "name": "",
          "type": "address"
        }
      ],
      "stateMutability": "view",
      "type": "function"
    },
    {
      "inputs": [
        {
          "internalType": "string",
          "name": "name",
          "type": "string"
        }
      ],
      "name": "price",
      "outputs": [
        {
          "internalType": "uint256",
          "name": "",
          "type": "uint256"
        }
      ],
      "stateMutability": "pure",
      "type": "function"
    },
    {
      "inputs": [
        {
          "internalType": "string",
          "name": "",
          "type": "string"
        }
      ],
      "name": "records",
      "outputs": [
        {
          "internalType": "string",
          "name": "",
          "type": "string"
        }
      ],
      "stateMutability": "view",
      "type": "function"
    },
    {
      "inputs": [
        {
          "internalType": "string",
          "name": "name",
          "type": "string"
        }
      ],
      "name": "register",
      "outputs": [],
      "stateMutability": "payable",
      "type": "function"
    },
    {
      "inputs": [
        {
          "internalType": "address",
          "name": "from",
          "type": "address"
        },
        {
          "internalType": "address",
          "name": "to",
          "type": "address"
        },
        {
          "internalType": "uint256",
          "name": "tokenId",
          "type": "uint256"
        }
      ],
      "name": "safeTransferFrom",
      "outputs": [],
      "stateMutability": "nonpayable",
      "type": "function"
    },
    {
      "inputs": [
        {
          "internalType": "address",
          "name": "from",
          "type": "address"
        },
        {
          "internalType": "address",
          "name": "to",
          "type": "address"
        },
        {
          "internalType": "uint256",
          "name": "tokenId",
          "type": "uint256"
        },
        {
          "internalType": "bytes",
          "name": "data",
          "type": "bytes"
        }
      ],
      "name": "safeTransferFrom",
      "outputs": [],
      "stateMutability": "nonpayable",
      "type": "function"
    },
    {
      "inputs": [
        {
          "internalType": "address",
          "name": "operator",
          "type": "address"
        },
        {
          "internalType": "bool",
          "name": "approved",
          "type": "bool"
        }
      ],
      "name": "setApprovalForAll",
      "outputs": [],
      "stateMutability": "nonpayable",
      "type": "function"
    },
    {
      "inputs": [
        {
          "internalType": "string",
          "name": "name",
          "type": "string"
        },
        {
          "internalType": "string",
          "name": "record",
          "type": "string"
        }
      ],
      "name": "setRecord",
      "outputs": [],
      "stateMutability": "nonpayable",
      "type": "function"
    },
    {
      "inputs": [
        {
          "internalType": "bytes4",
          "name": "interfaceId",
          "type": "bytes4"
        }
      ],
      "name": "supportsInterface",
      "outputs": [
        {
          "internalType": "bool",
          "name": "",
          "type": "bool"
        }
      ],
      "stateMutability": "view",
      "type": "function"
    },
    {
      "inputs": [],
      "name": "symbol",
      "outputs": [
        {
          "internalType": "string",
          "name": "",
          "type": "string"
        }
      ],
      "stateMutability": "view",
      "type": "function"
    },
    {
      "inputs": [],
      "name": "tld",
      "outputs": [
        {
          "internalType": "string",
          "name": "",
          "type": "string"
        }
      ],
      "stateMutability": "view",
      "type": "function"
    },
    {
      "inputs": [
        {
          "internalType": "uint256",
          "name": "tokenId",
          "type": "uint256"
        }
      ],
      "name": "tokenURI",
      "outputs": [
        {
          "internalType": "string",
          "name": "",
          "type": "string"
        }
      ],
      "stateMutability": "view",
      "type": "function"
    },
    {
      "inputs": [
        {
          "internalType": "address",
          "name": "from",
          "type": "address"
        },
        {
          "internalType": "address",
          "name": "to",
          "type": "address"
        },
        {
          "internalType": "uint256",
          "name": "tokenId",
          "type": "uint256"
        }
      ],
      "name": "transferFrom",
      "outputs": [],
      "stateMutability": "nonpayable",
      "type": "function"
    },
    {
      "inputs": [
        {
          "internalType": "string",
          "name": "name",
          "type": "string"
        }
      ],
      "name": "valid",
      "outputs": [
        {
          "internalType": "bool",
          "name": "",
          "type": "bool"
        }
      ],
      "stateMutability": "pure",
      "type": "function"
    },
    {
      "inputs": [],
      "name": "withdraw",
      "outputs": [],
      "stateMutability": "nonpayable",
      "type": "function"
    }
  ],
  "bytecode": "0x6080604052604051806108a0016040528061086b81526020016200568961086b9139600a90816200003191906200051f565b506040518060400160405280600d81526020017f3c2f746578743e3c2f7376673e00000000000000000000000000000000000000815250600b90816200007891906200051f565b5060405162005ef438038062005ef483398181016040528101906200009e91906200076a565b6040518060400160405280601281526020017f42616b6572204e616d65205365727669636500000000000000000000000000008152506040518060400160405280600381526020017f424e53000000000000000000000000000000000000000000000000000000000081525081600090816200011b91906200051f565b5080600190816200012d91906200051f565b50505033600760006101000a81548173ffffffffffffffffffffffffffffffffffffffff021916908373ffffffffffffffffffffffffffffffffffffffff16021790555080600990816200018291906200051f565b50620001cf6040518060400160405280601981526020017f2573206e616d652073657276696365206465706c6f796564210000000000000081525082620001d660201b62001b011760201c565b5062000848565b620002788282604051602401620001ef9291906200080d565b6040516020818303038152906040527f4b5c4277000000000000000000000000000000000000000000000000000000007bffffffffffffffffffffffffffffffffffffffffffffffffffffffff19166020820180517bffffffffffffffffffffffffffffffffffffffffffffffffffffffff83818316178352505050506200027c60201b60201c565b5050565b60008151905060006a636f6e736f6c652e6c6f679050602083016000808483855afa5050505050565b600081519050919050565b7f4e487b7100000000000000000000000000000000000000000000000000000000600052604160045260246000fd5b7f4e487b7100000000000000000000000000000000000000000000000000000000600052602260045260246000fd5b600060028204905060018216806200032757607f821691505b6020821081036200033d576200033c620002df565b5b50919050565b60008190508160005260206000209050919050565b60006020601f8301049050919050565b600082821b905092915050565b600060088302620003a77fffffffffffffffffffffffffffffffffffffffffffffffffffffffffffffffff8262000368565b620003b3868362000368565b95508019841693508086168417925050509392505050565b6000819050919050565b6000819050919050565b600062000400620003fa620003f484620003cb565b620003d5565b620003cb565b9050919050565b6000819050919050565b6200041c83620003df565b620004346200042b8262000407565b84845462000375565b825550505050565b600090565b6200044b6200043c565b6200045881848462000411565b505050565b5b8181101562000480576200047460008262000441565b6001810190506200045e565b5050565b601f821115620004cf57620004998162000343565b620004a48462000358565b81016020851015620004b4578190505b620004cc620004c38562000358565b8301826200045d565b50505b505050565b600082821c905092915050565b6000620004f460001984600802620004d4565b1980831691505092915050565b60006200050f8383620004e1565b9150826002028217905092915050565b6200052a82620002a5565b67ffffffffffffffff811115620005465762000545620002b0565b5b6200055282546200030e565b6200055f82828562000484565b600060209050601f83116001811462000597576000841562000582578287015190505b6200058e858262000501565b865550620005fe565b601f198416620005a78662000343565b60005b82811015620005d157848901518255600182019150602085019450602081019050620005aa565b86831015620005f15784890151620005ed601f891682620004e1565b8355505b6001600288020188555050505b505050505050565b6000604051905090565b600080fd5b600080fd5b600080fd5b600080fd5b6000601f19601f8301169050919050565b620006408262000624565b810181811067ffffffffffffffff82111715620006625762000661620002b0565b5b80604052505050565b60006200067762000606565b905062000685828262000635565b919050565b600067ffffffffffffffff821115620006a857620006a7620002b0565b5b620006b38262000624565b9050602081019050919050565b60005b83811015620006e0578082015181840152602081019050620006c3565b60008484015250505050565b600062000703620006fd846200068a565b6200066b565b9050828152602081018484840111156200072257620007216200061f565b5b6200072f848285620006c0565b509392505050565b600082601f8301126200074f576200074e6200061a565b5b815162000761848260208601620006ec565b91505092915050565b60006020828403121562000783576200078262000610565b5b600082015167ffffffffffffffff811115620007a457620007a362000615565b5b620007b28482850162000737565b91505092915050565b600082825260208201905092915050565b6000620007d982620002a5565b620007e58185620007bb565b9350620007f7818560208601620006c0565b620008028162000624565b840191505092915050565b60006040820190508181036000830152620008298185620007cc565b905081810360208301526200083f8184620007cc565b90509392505050565b614e3180620008586000396000f3fe60806040526004361061019c5760003560e01c806370a08231116100ec578063bf40fac11161008a578063e985e9c511610064578063e985e9c514610624578063f2c298be14610661578063fb825e5f1461067d578063fe2c6198146106a85761019c565b8063bf40fac114610581578063c1880a98146105be578063c87b56dd146105e75761019c565b806395d89b41116100c657806395d89b41146104c75780639791c097146104f2578063a22cb4651461052f578063b88d4fde146105585761019c565b806370a08231146104345780638da5cb5b146104715780638f32d59b1461049c5761019c565b8063264492351161015957806342842e0e1161013357806342842e0e146103545780634622ab031461037d578063541e771d146103ba5780636352211e146103f75761019c565b806326449235146102d55780632d551432146103125780633ccfd60b1461033d5761019c565b806301ffc9a7146101a157806306fdde03146101de578063081812fc14610209578063095ea7b31461024657806311dd88451461026f57806323b872dd146102ac575b600080fd5b3480156101ad57600080fd5b506101c860048036038101906101c3919061313f565b6106e5565b6040516101d59190613187565b60405180910390f35b3480156101ea57600080fd5b506101f36107c7565b6040516102009190613232565b60405180910390f35b34801561021557600080fd5b50610230600480360381019061022b919061328a565b610859565b60405161023d91906132f8565b60405180910390f35b34801561025257600080fd5b5061026d6004803603810190610268919061333f565b61089f565b005b34801561027b57600080fd5b50610296600480360381019061029191906133e4565b6109b6565b6040516102a39190613232565b60405180910390f35b3480156102b857600080fd5b506102d360048036038101906102ce9190613431565b610a69565b005b3480156102e157600080fd5b506102fc60048036038101906102f791906135b4565b610ac9565b60405161030991906132f8565b60405180910390f35b34801561031e57600080fd5b50610327610b12565b6040516103349190613232565b60405180910390f35b34801561034957600080fd5b50610352610ba0565b005b34801561036057600080fd5b5061037b60048036038101906103769190613431565b610c66565b005b34801561038957600080fd5b506103a4600480360381019061039f919061328a565b610c86565b6040516103b19190613232565b60405180910390f35b3480156103c657600080fd5b506103e160048036038101906103dc91906135b4565b610d26565b6040516103ee9190613232565b60405180910390f35b34801561040357600080fd5b5061041e6004803603810190610419919061328a565b610ddc565b60405161042b91906132f8565b60405180910390f35b34801561044057600080fd5b5061045b600480360381019061045691906135fd565b610e62565b6040516104689190613639565b60405180910390f35b34801561047d57600080fd5b50610486610f19565b6040516104939190613675565b60405180910390f35b3480156104a857600080fd5b506104b1610f3f565b6040516104be9190613187565b60405180910390f35b3480156104d357600080fd5b506104dc610f97565b6040516104e99190613232565b60405180910390f35b3480156104fe57600080fd5b50610519600480360381019061051491906133e4565b611029565b6040516105269190613187565b60405180910390f35b34801561053b57600080fd5b50610556600480360381019061055191906136bc565b6110dd565b005b34801561056457600080fd5b5061057f600480360381019061057a919061379d565b6110f3565b005b34801561058d57600080fd5b506105a860048036038101906105a391906133e4565b611155565b6040516105b591906132f8565b60405180910390f35b3480156105ca57600080fd5b506105e560048036038101906105e09190613820565b6111a0565b005b3480156105f357600080fd5b5061060e6004803603810190610609919061328a565b61127b565b60405161061b9190613232565b60405180910390f35b34801561063057600080fd5b5061064b600480360381019061064691906138a1565b61138d565b6040516106589190613187565b60405180910390f35b61067b600480360381019061067691906133e4565b611421565b005b34801561068957600080fd5b5061069261189f565b60405161069f91906139ed565b60405180910390f35b3480156106b457600080fd5b506106cf60048036038101906106ca91906133e4565b611a60565b6040516106dc9190613639565b60405180910390f35b60007f80ac58cd000000000000000000000000000000000000000000000000000000007bffffffffffffffffffffffffffffffffffffffffffffffffffffffff1916827bffffffffffffffffffffffffffffffffffffffffffffffffffffffff191614806107b057507f5b5e139f000000000000000000000000000000000000000000000000000000007bffffffffffffffffffffffffffffffffffffffffffffffffffffffff1916827bffffffffffffffffffffffffffffffffffffffffffffffffffffffff1916145b806107c057506107bf82611b9d565b5b9050919050565b6060600080546107d690613a3e565b80601f016020809104026020016040519081016040528092919081815260200182805461080290613a3e565b801561084f5780601f106108245761010080835404028352916020019161084f565b820191906000526020600020905b81548152906001019060200180831161083257829003601f168201915b5050505050905090565b600061086482611c07565b6004600083815260200190815260200160002060009054906101000a900473ffffffffffffffffffffffffffffffffffffffff169050919050565b60006108aa82610ddc565b90508073ffffffffffffffffffffffffffffffffffffffff168373ffffffffffffffffffffffffffffffffffffffff160361091a576040517f08c379a000000000000000000000000000000000000000000000000000000000815260040161091190613ae1565b60405180910390fd5b8073ffffffffffffffffffffffffffffffffffffffff16610939611c52565b73ffffffffffffffffffffffffffffffffffffffff161480610968575061096781610962611c52565b61138d565b5b6109a7576040517f08c379a000000000000000000000000000000000000000000000000000000000815260040161099e90613b73565b60405180910390fd5b6109b18383611c5a565b505050565b6060600d83836040516109ca929190613bc3565b908152602001604051809103902080546109e390613a3e565b80601f0160208091040260200160405190810160405280929190818152602001828054610a0f90613a3e565b8015610a5c5780601f10610a3157610100808354040283529160200191610a5c565b820191906000526020600020905b815481529060010190602001808311610a3f57829003601f168201915b5050505050905092915050565b610a7a610a74611c52565b82611d13565b610ab9576040517f08c379a0000000000000000000000000000000000000000000000000000000008152600401610ab090613c4e565b60405180910390fd5b610ac4838383611da8565b505050565b600c818051602081018201805184825260208301602085012081835280955050505050506000915054906101000a900473ffffffffffffffffffffffffffffffffffffffff1681565b60098054610b1f90613a3e565b80601f0160208091040260200160405190810160405280929190818152602001828054610b4b90613a3e565b8015610b985780601f10610b6d57610100808354040283529160200191610b98565b820191906000526020600020905b815481529060010190602001808311610b7b57829003601f168201915b505050505081565b610ba8610f3f565b610bb157600080fd5b600047905060003373ffffffffffffffffffffffffffffffffffffffff1682604051610bdc90613c9f565b60006040518083038185875af1925050503d8060008114610c19576040519150601f19603f3d011682016040523d82523d6000602084013e610c1e565b606091505b5050905080610c62576040517f08c379a0000000000000000000000000000000000000000000000000000000008152600401610c5990613d00565b60405180910390fd5b5050565b610c81838383604051806020016040528060008152506110f3565b505050565b600e6020528060005260406000206000915090508054610ca590613a3e565b80601f0160208091040260200160405190810160405280929190818152602001828054610cd190613a3e565b8015610d1e5780601f10610cf357610100808354040283529160200191610d1e565b820191906000526020600020905b815481529060010190602001808311610d0157829003601f168201915b505050505081565b600d818051602081018201805184825260208301602085012081835280955050505050506000915090508054610d5b90613a3e565b80601f0160208091040260200160405190810160405280929190818152602001828054610d8790613a3e565b8015610dd45780601f10610da957610100808354040283529160200191610dd4565b820191906000526020600020905b815481529060010190602001808311610db757829003601f168201915b505050505081565b600080610de8836120a1565b9050600073ffffffffffffffffffffffffffffffffffffffff168173ffffffffffffffffffffffffffffffffffffffff1603610e59576040517f08c379a0000000000000000000000000000000000000000000000000000000008152600401610e5090613d6c565b60405180910390fd5b80915050919050565b60008073ffffffffffffffffffffffffffffffffffffffff168273ffffffffffffffffffffffffffffffffffffffff1603610ed2576040517f08c379a0000000000000000000000000000000000000000000000000000000008152600401610ec990613dfe565b60405180910390fd5b600360008373ffffffffffffffffffffffffffffffffffffffff1673ffffffffffffffffffffffffffffffffffffffff168152602001908152602001600020549050919050565b600760009054906101000a900473ffffffffffffffffffffffffffffffffffffffff1681565b6000600760009054906101000a900473ffffffffffffffffffffffffffffffffffffffff1673ffffffffffffffffffffffffffffffffffffffff163373ffffffffffffffffffffffffffffffffffffffff1614905090565b606060018054610fa690613a3e565b80601f0160208091040260200160405190810160405280929190818152602001828054610fd290613a3e565b801561101f5780601f10610ff45761010080835404028352916020019161101f565b820191906000526020600020905b81548152906001019060200180831161100257829003601f168201915b5050505050905090565b6000600361107a84848080601f016020809104026020016040519081016040528093929190818152602001838380828437600081840152601f19601f820116905080830192505050505050506120de565b101580156110d55750600a6110d284848080601f016020809104026020016040519081016040528093929190818152602001838380828437600081840152601f19601f820116905080830192505050505050506120de565b11155b905092915050565b6110ef6110e8611c52565b8383612293565b5050565b6111046110fe611c52565b83611d13565b611143576040517f08c379a000000000000000000000000000000000000000000000000000000000815260040161113a90613c4e565b60405180910390fd5b61114f848484846123ff565b50505050565b6000600c8383604051611169929190613bc3565b908152602001604051809103902060009054906101000a900473ffffffffffffffffffffffffffffffffffffffff16905092915050565b600c84846040516111b2929190613bc3565b908152602001604051809103902060009054906101000a900473ffffffffffffffffffffffffffffffffffffffff1673ffffffffffffffffffffffffffffffffffffffff163373ffffffffffffffffffffffffffffffffffffffff1614611245576040517f82b4290000000000000000000000000000000000000000000000000000000000815260040160405180910390fd5b8181600d8686604051611259929190613bc3565b90815260200160405180910390209182611274929190613fd5565b5050505050565b606061128682611c07565b60006006600084815260200190815260200160002080546112a690613a3e565b80601f01602080910402602001604051908101604052809291908181526020018280546112d290613a3e565b801561131f5780601f106112f45761010080835404028352916020019161131f565b820191906000526020600020905b81548152906001019060200180831161130257829003601f168201915b50505050509050600061133061245b565b90506000815103611345578192505050611388565b60008251111561137a5780826040516020016113629291906140d6565b60405160208183030381529060405292505050611388565b61138384612472565b925050505b919050565b6000600560008473ffffffffffffffffffffffffffffffffffffffff1673ffffffffffffffffffffffffffffffffffffffff16815260200190815260200160002060008373ffffffffffffffffffffffffffffffffffffffff1673ffffffffffffffffffffffffffffffffffffffff16815260200190815260200160002060009054906101000a900460ff16905092915050565b600073ffffffffffffffffffffffffffffffffffffffff16600c838360405161144b929190613bc3565b908152602001604051809103902060009054906101000a900473ffffffffffffffffffffffffffffffffffffffff1673ffffffffffffffffffffffffffffffffffffffff16146114c7576040517f3a81d6fc00000000000000000000000000000000000000000000000000000000815260040160405180910390fd5b6114d18282611029565b6115145781816040517f7f19f48d00000000000000000000000000000000000000000000000000000000815260040161150b929190614127565b60405180910390fd5b60006115208383611a60565b905080341015611565576040517f08c379a000000000000000000000000000000000000000000000000000000000815260040161155c90614197565b60405180910390fd5b60008383600960405160200161157d93929190614286565b60405160208183030381529060405290506000600a82600b6040516020016115a7939291906142b7565b604051602081830303815290604052905060006115c460086124da565b9050600061161587878080601f016020809104026020016040519081016040528093929190818152602001838380828437600081840152601f19601f820116905080830192505050505050506120de565b90506000611622826124e8565b9050611716604051806060016040528060328152602001614d306032913989898080601f016020809104026020016040519081016040528093929190818152602001838380828437600081840152601f19601f820116905080830192505050505050506009805461169290613a3e565b80601f01602080910402602001604051908101604052809291908181526020018280546116be90613a3e565b801561170b5780601f106116e05761010080835404028352916020019161170b565b820191906000526020600020905b8154815290600101906020018083116116ee57829003601f168201915b5050505050866125b6565b600061174c8661172587612658565b8460405160200161173893929190614464565b604051602081830303815290604052612658565b9050600081604051602001611761919061450d565b6040516020818303038152906040529050611793604051806060016040528060398152602001614cf7603991396127ef565b6117d26040518060400160405280600e81526020017f46696e616c20746f6b656e55524900000000000000000000000000000000000081525082611b01565b6117f3604051806060016040528060398152602001614d62603991396127ef565b6117fd3386612888565b61180785826128a6565b33600c8b8b60405161181a929190613bc3565b908152602001604051809103902060006101000a81548173ffffffffffffffffffffffffffffffffffffffff021916908373ffffffffffffffffffffffffffffffffffffffff1602179055508989600e60008881526020019081526020016000209182611888929190613fd5565b506118936008612913565b50505050505050505050565b60606118c2604051806060016040528060218152602001614ddb602191396127ef565b60006118ce60086124da565b67ffffffffffffffff8111156118e7576118e6613489565b5b60405190808252806020026020018201604052801561191a57816020015b60608152602001906001900390816119055790505b50905060005b61192a60086124da565b811015611a5857600e6000828152602001908152602001600020805461194f90613a3e565b80601f016020809104026020016040519081016040528092919081815260200182805461197b90613a3e565b80156119c85780601f1061199d576101008083540402835291602001916119c8565b820191906000526020600020905b8154815290600101906020018083116119ab57829003601f168201915b50505050508282815181106119e0576119df61452f565b5b6020026020010181905250611a456040518060400160405280601781526020017f4e616d6520666f7220746f6b656e20256420697320257300000000000000000081525082848481518110611a3857611a3761452f565b5b6020026020010151612929565b8080611a509061458d565b915050611920565b508091505090565b600080611ab084848080601f016020809104026020016040519081016040528093929190818152602001838380828437600081840152601f19601f820116905080830192505050505050506120de565b905060008111611abf57600080fd5b60038103611ad7576611c37937e08000915050611afb565b60048103611aef57660aa87bee538000915050611afb565b66038d7ea4c680009150505b92915050565b611b998282604051602401611b179291906145d5565b6040516020818303038152906040527f4b5c4277000000000000000000000000000000000000000000000000000000007bffffffffffffffffffffffffffffffffffffffffffffffffffffffff19166020820180517bffffffffffffffffffffffffffffffffffffffffffffffffffffffff83818316178352505050506129c8565b5050565b60007f01ffc9a7000000000000000000000000000000000000000000000000000000007bffffffffffffffffffffffffffffffffffffffffffffffffffffffff1916827bffffffffffffffffffffffffffffffffffffffffffffffffffffffff1916149050919050565b611c10816129f1565b611c4f576040517f08c379a0000000000000000000000000000000000000000000000000000000008152600401611c4690613d6c565b60405180910390fd5b50565b600033905090565b816004600083815260200190815260200160002060006101000a81548173ffffffffffffffffffffffffffffffffffffffff021916908373ffffffffffffffffffffffffffffffffffffffff160217905550808273ffffffffffffffffffffffffffffffffffffffff16611ccd83610ddc565b73ffffffffffffffffffffffffffffffffffffffff167f8c5be1e5ebec7d5bd14f71427d1e84f3dd0314c0f7b2291e5b200ac8c7c3b92560405160405180910390a45050565b600080611d1f83610ddc565b90508073ffffffffffffffffffffffffffffffffffffffff168473ffffffffffffffffffffffffffffffffffffffff161480611d615750611d60818561138d565b5b80611d9f57508373ffffffffffffffffffffffffffffffffffffffff16611d8784610859565b73ffffffffffffffffffffffffffffffffffffffff16145b91505092915050565b8273ffffffffffffffffffffffffffffffffffffffff16611dc882610ddc565b73ffffffffffffffffffffffffffffffffffffffff1614611e1e576040517f08c379a0000000000000000000000000000000000000000000000000000000008152600401611e159061467e565b60405180910390fd5b600073ffffffffffffffffffffffffffffffffffffffff168273ffffffffffffffffffffffffffffffffffffffff1603611e8d576040517f08c379a0000000000000000000000000000000000000000000000000000000008152600401611e8490614710565b60405180910390fd5b611e9a8383836001612a32565b8273ffffffffffffffffffffffffffffffffffffffff16611eba82610ddc565b73ffffffffffffffffffffffffffffffffffffffff1614611f10576040517f08c379a0000000000000000000000000000000000000000000000000000000008152600401611f079061467e565b60405180910390fd5b6004600082815260200190815260200160002060006101000a81549073ffffffffffffffffffffffffffffffffffffffff02191690556001600360008573ffffffffffffffffffffffffffffffffffffffff1673ffffffffffffffffffffffffffffffffffffffff168152602001908152602001600020600082825403925050819055506001600360008473ffffffffffffffffffffffffffffffffffffffff1673ffffffffffffffffffffffffffffffffffffffff16815260200190815260200160002060008282540192505081905550816002600083815260200190815260200160002060006101000a81548173ffffffffffffffffffffffffffffffffffffffff021916908373ffffffffffffffffffffffffffffffffffffffff160217905550808273ffffffffffffffffffffffffffffffffffffffff168473ffffffffffffffffffffffffffffffffffffffff167fddf252ad1be2c89b69c2b068fc378daa952ba7f163c4a11628f55a4df523b3ef60405160405180910390a461209c8383836001612b58565b505050565b60006002600083815260200190815260200160002060009054906101000a900473ffffffffffffffffffffffffffffffffffffffff169050919050565b60008060008084519050600092505b8082101561228857600085838151811061210a5761210961452f565b5b602001015160f81c60f81b9050608060f81b817effffffffffffffffffffffffffffffffffffffffffffffffffffffffffffff19161015612159576001836121529190614730565b9250612274565b60e060f81b817effffffffffffffffffffffffffffffffffffffffffffffffffffffffffffff1916101561219b576002836121949190614730565b9250612273565b60f060f81b817effffffffffffffffffffffffffffffffffffffffffffffffffffffffffffff191610156121dd576003836121d69190614730565b9250612272565b60f8801b817effffffffffffffffffffffffffffffffffffffffffffffffffffffffffffff1916101561221e576004836122179190614730565b9250612271565b60fc60f81b817effffffffffffffffffffffffffffffffffffffffffffffffffffffffffffff19161015612260576005836122599190614730565b9250612270565b60068361226d9190614730565b92505b5b5b5b5b5082806122809061458d565b9350506120ed565b829350505050919050565b8173ffffffffffffffffffffffffffffffffffffffff168373ffffffffffffffffffffffffffffffffffffffff1603612301576040517f08c379a00000000000000000000000000000000000000000000000000000000081526004016122f8906147b0565b60405180910390fd5b80600560008573ffffffffffffffffffffffffffffffffffffffff1673ffffffffffffffffffffffffffffffffffffffff16815260200190815260200160002060008473ffffffffffffffffffffffffffffffffffffffff1673ffffffffffffffffffffffffffffffffffffffff16815260200190815260200160002060006101000a81548160ff0219169083151502179055508173ffffffffffffffffffffffffffffffffffffffff168373ffffffffffffffffffffffffffffffffffffffff167f17307eab39ab6107e8899845ad3d59bd9653f200f220920489ca2b5937696c31836040516123f29190613187565b60405180910390a3505050565b61240a848484611da8565b61241684848484612b5e565b612455576040517f08c379a000000000000000000000000000000000000000000000000000000000815260040161244c90614842565b60405180910390fd5b50505050565b606060405180602001604052806000815250905090565b606061247d82611c07565b600061248761245b565b905060008151116124a757604051806020016040528060008152506124d2565b806124b1846124e8565b6040516020016124c29291906140d6565b6040516020818303038152906040525b915050919050565b600081600001549050919050565b6060600060016124f784612ce5565b01905060008167ffffffffffffffff81111561251657612515613489565b5b6040519080825280601f01601f1916602001820160405280156125485781602001600182028036833780820191505090505b509050600082602001820190505b6001156125ab578080600190039150507f3031323334353637383961626364656600000000000000000000000000000000600a86061a8153600a858161259f5761259e614862565b5b04945060008503612556575b819350505050919050565b612652848484846040516024016125d09493929190614891565b6040516020818303038152906040527f8eafb02b000000000000000000000000000000000000000000000000000000007bffffffffffffffffffffffffffffffffffffffffffffffffffffffff19166020820180517bffffffffffffffffffffffffffffffffffffffffffffffffffffffff83818316178352505050506129c8565b50505050565b60606000825190506000810361268057604051806020016040528060008152509150506127ea565b600060036002836126919190614730565b61269b91906148eb565b60046126a7919061491c565b905060006020826126b89190614730565b67ffffffffffffffff8111156126d1576126d0613489565b5b6040519080825280601f01601f1916602001820160405280156127035781602001600182028036833780820191505090505b5090506000604051806060016040528060408152602001614d9b604091399050600181016020830160005b868110156127a75760038101905062ffffff818a015116603f8160121c168401518060081b905060ff603f83600c1c1686015116810190508060081b905060ff603f8360061c1686015116810190508060081b905060ff603f831686015116810190508060e01b9050808452600484019350505061272e565b5060038606600181146127c157600281146127d1576127dc565b613d3d60f01b60028303526127dc565b603d60f81b60018303525b508484525050819450505050505b919050565b612885816040516024016128039190613232565b6040516020818303038152906040527f41304fac000000000000000000000000000000000000000000000000000000007bffffffffffffffffffffffffffffffffffffffffffffffffffffffff19166020820180517bffffffffffffffffffffffffffffffffffffffffffffffffffffffff83818316178352505050506129c8565b50565b6128a2828260405180602001604052806000815250612e38565b5050565b6128af826129f1565b6128ee576040517f08c379a00000000000000000000000000000000000000000000000000000000081526004016128e5906149d0565b60405180910390fd5b8060066000848152602001908152602001600020908161290e91906149f0565b505050565b6001816000016000828254019250508190555050565b6129c383838360405160240161294193929190614ac2565b6040516020818303038152906040527f5970e089000000000000000000000000000000000000000000000000000000007bffffffffffffffffffffffffffffffffffffffffffffffffffffffff19166020820180517bffffffffffffffffffffffffffffffffffffffffffffffffffffffff83818316178352505050506129c8565b505050565b60008151905060006a636f6e736f6c652e6c6f679050602083016000808483855afa5050505050565b60008073ffffffffffffffffffffffffffffffffffffffff16612a13836120a1565b73ffffffffffffffffffffffffffffffffffffffff1614159050919050565b6001811115612b5257600073ffffffffffffffffffffffffffffffffffffffff168473ffffffffffffffffffffffffffffffffffffffff1614612ac65780600360008673ffffffffffffffffffffffffffffffffffffffff1673ffffffffffffffffffffffffffffffffffffffff1681526020019081526020016000206000828254612abe9190614b07565b925050819055505b600073ffffffffffffffffffffffffffffffffffffffff168373ffffffffffffffffffffffffffffffffffffffff1614612b515780600360008573ffffffffffffffffffffffffffffffffffffffff1673ffffffffffffffffffffffffffffffffffffffff1681526020019081526020016000206000828254612b499190614730565b925050819055505b5b50505050565b50505050565b6000612b7f8473ffffffffffffffffffffffffffffffffffffffff16612e93565b15612cd8578373ffffffffffffffffffffffffffffffffffffffff1663150b7a02612ba8611c52565b8786866040518563ffffffff1660e01b8152600401612bca9493929190614b90565b6020604051808303816000875af1925050508015612c0657506040513d601f19601f82011682018060405250810190612c039190614bf1565b60015b612c88573d8060008114612c36576040519150601f19603f3d011682016040523d82523d6000602084013e612c3b565b606091505b506000815103612c80576040517f08c379a0000000000000000000000000000000000000000000000000000000008152600401612c7790614842565b60405180910390fd5b805181602001fd5b63150b7a0260e01b7bffffffffffffffffffffffffffffffffffffffffffffffffffffffff1916817bffffffffffffffffffffffffffffffffffffffffffffffffffffffff191614915050612cdd565b600190505b949350505050565b600080600090507a184f03e93ff9f4daa797ed6e38ed64bf6a1f0100000000000000008310612d43577a184f03e93ff9f4daa797ed6e38ed64bf6a1f0100000000000000008381612d3957612d38614862565b5b0492506040810190505b6d04ee2d6d415b85acef81000000008310612d80576d04ee2d6d415b85acef81000000008381612d7657612d75614862565b5b0492506020810190505b662386f26fc100008310612daf57662386f26fc100008381612da557612da4614862565b5b0492506010810190505b6305f5e1008310612dd8576305f5e1008381612dce57612dcd614862565b5b0492506008810190505b6127108310612dfd576127108381612df357612df2614862565b5b0492506004810190505b60648310612e205760648381612e1657612e15614862565b5b0492506002810190505b600a8310612e2f576001810190505b80915050919050565b612e428383612eb6565b612e4f6000848484612b5e565b612e8e576040517f08c379a0000000000000000000000000000000000000000000000000000000008152600401612e8590614842565b60405180910390fd5b505050565b6000808273ffffffffffffffffffffffffffffffffffffffff163b119050919050565b600073ffffffffffffffffffffffffffffffffffffffff168273ffffffffffffffffffffffffffffffffffffffff1603612f25576040517f08c379a0000000000000000000000000000000000000000000000000000000008152600401612f1c90614c6a565b60405180910390fd5b612f2e816129f1565b15612f6e576040517f08c379a0000000000000000000000000000000000000000000000000000000008152600401612f6590614cd6565b60405180910390fd5b612f7c600083836001612a32565b612f85816129f1565b15612fc5576040517f08c379a0000000000000000000000000000000000000000000000000000000008152600401612fbc90614cd6565b60405180910390fd5b6001600360008473ffffffffffffffffffffffffffffffffffffffff1673ffffffffffffffffffffffffffffffffffffffff16815260200190815260200160002060008282540192505081905550816002600083815260200190815260200160002060006101000a81548173ffffffffffffffffffffffffffffffffffffffff021916908373ffffffffffffffffffffffffffffffffffffffff160217905550808273ffffffffffffffffffffffffffffffffffffffff16600073ffffffffffffffffffffffffffffffffffffffff167fddf252ad1be2c89b69c2b068fc378daa952ba7f163c4a11628f55a4df523b3ef60405160405180910390a46130cf600083836001612b58565b5050565b6000604051905090565b600080fd5b600080fd5b60007fffffffff0000000000000000000000000000000000000000000000000000000082169050919050565b61311c816130e7565b811461312757600080fd5b50565b60008135905061313981613113565b92915050565b600060208284031215613155576131546130dd565b5b60006131638482850161312a565b91505092915050565b60008115159050919050565b6131818161316c565b82525050565b600060208201905061319c6000830184613178565b92915050565b600081519050919050565b600082825260208201905092915050565b60005b838110156131dc5780820151818401526020810190506131c1565b60008484015250505050565b6000601f19601f8301169050919050565b6000613204826131a2565b61320e81856131ad565b935061321e8185602086016131be565b613227816131e8565b840191505092915050565b6000602082019050818103600083015261324c81846131f9565b905092915050565b6000819050919050565b61326781613254565b811461327257600080fd5b50565b6000813590506132848161325e565b92915050565b6000602082840312156132a05761329f6130dd565b5b60006132ae84828501613275565b91505092915050565b600073ffffffffffffffffffffffffffffffffffffffff82169050919050565b60006132e2826132b7565b9050919050565b6132f2816132d7565b82525050565b600060208201905061330d60008301846132e9565b92915050565b61331c816132d7565b811461332757600080fd5b50565b60008135905061333981613313565b92915050565b60008060408385031215613356576133556130dd565b5b60006133648582860161332a565b925050602061337585828601613275565b9150509250929050565b600080fd5b600080fd5b600080fd5b60008083601f8401126133a4576133a361337f565b5b8235905067ffffffffffffffff8111156133c1576133c0613384565b5b6020830191508360018202830111156133dd576133dc613389565b5b9250929050565b600080602083850312156133fb576133fa6130dd565b5b600083013567ffffffffffffffff811115613419576134186130e2565b5b6134258582860161338e565b92509250509250929050565b60008060006060848603121561344a576134496130dd565b5b60006134588682870161332a565b93505060206134698682870161332a565b925050604061347a86828701613275565b9150509250925092565b600080fd5b7f4e487b7100000000000000000000000000000000000000000000000000000000600052604160045260246000fd5b6134c1826131e8565b810181811067ffffffffffffffff821117156134e0576134df613489565b5b80604052505050565b60006134f36130d3565b90506134ff82826134b8565b919050565b600067ffffffffffffffff82111561351f5761351e613489565b5b613528826131e8565b9050602081019050919050565b82818337600083830152505050565b600061355761355284613504565b6134e9565b90508281526020810184848401111561357357613572613484565b5b61357e848285613535565b509392505050565b600082601f83011261359b5761359a61337f565b5b81356135ab848260208601613544565b91505092915050565b6000602082840312156135ca576135c96130dd565b5b600082013567ffffffffffffffff8111156135e8576135e76130e2565b5b6135f484828501613586565b91505092915050565b600060208284031215613613576136126130dd565b5b60006136218482850161332a565b91505092915050565b61363381613254565b82525050565b600060208201905061364e600083018461362a565b92915050565b600061365f826132b7565b9050919050565b61366f81613654565b82525050565b600060208201905061368a6000830184613666565b92915050565b6136998161316c565b81146136a457600080fd5b50565b6000813590506136b681613690565b92915050565b600080604083850312156136d3576136d26130dd565b5b60006136e18582860161332a565b92505060206136f2858286016136a7565b9150509250929050565b600067ffffffffffffffff82111561371757613716613489565b5b613720826131e8565b9050602081019050919050565b600061374061373b846136fc565b6134e9565b90508281526020810184848401111561375c5761375b613484565b5b613767848285613535565b509392505050565b600082601f8301126137845761378361337f565b5b813561379484826020860161372d565b91505092915050565b600080600080608085870312156137b7576137b66130dd565b5b60006137c58782880161332a565b94505060206137d68782880161332a565b93505060406137e787828801613275565b925050606085013567ffffffffffffffff811115613808576138076130e2565b5b6138148782880161376f565b91505092959194509250565b6000806000806040858703121561383a576138396130dd565b5b600085013567ffffffffffffffff811115613858576138576130e2565b5b6138648782880161338e565b9450945050602085013567ffffffffffffffff811115613887576138866130e2565b5b6138938782880161338e565b925092505092959194509250565b600080604083850312156138b8576138b76130dd565b5b60006138c68582860161332a565b92505060206138d78582860161332a565b9150509250929050565b600081519050919050565b600082825260208201905092915050565b6000819050602082019050919050565b600082825260208201905092915050565b6000613929826131a2565b613933818561390d565b93506139438185602086016131be565b61394c816131e8565b840191505092915050565b6000613963838361391e565b905092915050565b6000602082019050919050565b6000613983826138e1565b61398d81856138ec565b93508360208202850161399f856138fd565b8060005b858110156139db57848403895281516139bc8582613957565b94506139c78361396b565b925060208a019950506001810190506139a3565b50829750879550505050505092915050565b60006020820190508181036000830152613a078184613978565b905092915050565b7f4e487b7100000000000000000000000000000000000000000000000000000000600052602260045260246000fd5b60006002820490506001821680613a5657607f821691505b602082108103613a6957613a68613a0f565b5b50919050565b7f4552433732313a20617070726f76616c20746f2063757272656e74206f776e6560008201527f7200000000000000000000000000000000000000000000000000000000000000602082015250565b6000613acb6021836131ad565b9150613ad682613a6f565b604082019050919050565b60006020820190508181036000830152613afa81613abe565b9050919050565b7f4552433732313a20617070726f76652063616c6c6572206973206e6f7420746f60008201527f6b656e206f776e6572206f7220617070726f76656420666f7220616c6c000000602082015250565b6000613b5d603d836131ad565b9150613b6882613b01565b604082019050919050565b60006020820190508181036000830152613b8c81613b50565b9050919050565b600081905092915050565b6000613baa8385613b93565b9350613bb7838584613535565b82840190509392505050565b6000613bd0828486613b9e565b91508190509392505050565b7f4552433732313a2063616c6c6572206973206e6f7420746f6b656e206f776e6560008201527f72206f7220617070726f76656400000000000000000000000000000000000000602082015250565b6000613c38602d836131ad565b9150613c4382613bdc565b604082019050919050565b60006020820190508181036000830152613c6781613c2b565b9050919050565b600081905092915050565b50565b6000613c89600083613c6e565b9150613c9482613c79565b600082019050919050565b6000613caa82613c7c565b9150819050919050565b7f4661696c656420746f207769746864726177204d617469630000000000000000600082015250565b6000613cea6018836131ad565b9150613cf582613cb4565b602082019050919050565b60006020820190508181036000830152613d1981613cdd565b9050919050565b7f4552433732313a20696e76616c696420746f6b656e2049440000000000000000600082015250565b6000613d566018836131ad565b9150613d6182613d20565b602082019050919050565b60006020820190508181036000830152613d8581613d49565b9050919050565b7f4552433732313a2061646472657373207a65726f206973206e6f74206120766160008201527f6c6964206f776e65720000000000000000000000000000000000000000000000602082015250565b6000613de86029836131ad565b9150613df382613d8c565b604082019050919050565b60006020820190508181036000830152613e1781613ddb565b9050919050565b600082905092915050565b60008190508160005260206000209050919050565b60006020601f8301049050919050565b600082821b905092915050565b600060088302613e8b7fffffffffffffffffffffffffffffffffffffffffffffffffffffffffffffffff82613e4e565b613e958683613e4e565b95508019841693508086168417925050509392505050565b6000819050919050565b6000613ed2613ecd613ec884613254565b613ead565b613254565b9050919050565b6000819050919050565b613eec83613eb7565b613f00613ef882613ed9565b848454613e5b565b825550505050565b600090565b613f15613f08565b613f20818484613ee3565b505050565b5b81811015613f4457613f39600082613f0d565b600181019050613f26565b5050565b601f821115613f8957613f5a81613e29565b613f6384613e3e565b81016020851015613f72578190505b613f86613f7e85613e3e565b830182613f25565b50505b505050565b600082821c905092915050565b6000613fac60001984600802613f8e565b1980831691505092915050565b6000613fc58383613f9b565b9150826002028217905092915050565b613fdf8383613e1e565b67ffffffffffffffff811115613ff857613ff7613489565b5b6140028254613a3e565b61400d828285613f48565b6000601f83116001811461403c576000841561402a578287013590505b6140348582613fb9565b86555061409c565b601f19841661404a86613e29565b60005b828110156140725784890135825560018201915060208501945060208101905061404d565b8683101561408f578489013561408b601f891682613f9b565b8355505b6001600288020188555050505b50505050505050565b60006140b0826131a2565b6140ba8185613b93565b93506140ca8185602086016131be565b80840191505092915050565b60006140e282856140a5565b91506140ee82846140a5565b91508190509392505050565b600061410683856131ad565b9350614113838584613535565b61411c836131e8565b840190509392505050565b600060208201905081810360008301526141428184866140fa565b90509392505050565b7f4e6f7420656e6f756768206d6174696320706179640000000000000000000000600082015250565b60006141816015836131ad565b915061418c8261414b565b602082019050919050565b600060208201905081810360008301526141b081614174565b9050919050565b7f2e00000000000000000000000000000000000000000000000000000000000000600082015250565b60006141ed600183613b93565b91506141f8826141b7565b600182019050919050565b6000815461421081613a3e565b61421a8186613b93565b94506001821660008114614235576001811461424a5761427d565b60ff198316865281151582028601935061427d565b61425385613e29565b60005b8381101561427557815481890152600182019150602081019050614256565b838801955050505b50505092915050565b6000614293828587613b9e565b915061429e826141e0565b91506142aa8284614203565b9150819050949350505050565b60006142c38286614203565b91506142cf82856140a5565b91506142db8284614203565b9150819050949350505050565b7f7b226e616d65223a202200000000000000000000000000000000000000000000600082015250565b600061431e600a83613b93565b9150614329826142e8565b600a82019050919050565b7f222c20226465736372697074696f6e223a20224120646f6d61696e206f6e207460008201527f68652042616b6572206e616d652073657276696365222c2022696d616765223a60208201527f2022646174613a696d6167652f7376672b786d6c3b6261736536342c00000000604082015250565b60006143b6605c83613b93565b91506143c182614334565b605c82019050919050565b7f222c226c656e677468223a220000000000000000000000000000000000000000600082015250565b6000614402600c83613b93565b915061440d826143cc565b600c82019050919050565b7f227d000000000000000000000000000000000000000000000000000000000000600082015250565b600061444e600283613b93565b915061445982614418565b600282019050919050565b600061446f82614311565b915061447b82866140a5565b9150614486826143a9565b915061449282856140a5565b915061449d826143f5565b91506144a982846140a5565b91506144b482614441565b9150819050949350505050565b7f646174613a6170706c69636174696f6e2f6a736f6e3b6261736536342c000000600082015250565b60006144f7601d83613b93565b9150614502826144c1565b601d82019050919050565b6000614518826144ea565b915061452482846140a5565b915081905092915050565b7f4e487b7100000000000000000000000000000000000000000000000000000000600052603260045260246000fd5b7f4e487b7100000000000000000000000000000000000000000000000000000000600052601160045260246000fd5b600061459882613254565b91507fffffffffffffffffffffffffffffffffffffffffffffffffffffffffffffffff82036145ca576145c961455e565b5b600182019050919050565b600060408201905081810360008301526145ef81856131f9565b9050818103602083015261460381846131f9565b90509392505050565b7f4552433732313a207472616e736665722066726f6d20696e636f72726563742060008201527f6f776e6572000000000000000000000000000000000000000000000000000000602082015250565b60006146686025836131ad565b91506146738261460c565b604082019050919050565b600060208201905081810360008301526146978161465b565b9050919050565b7f4552433732313a207472616e7366657220746f20746865207a65726f2061646460008201527f7265737300000000000000000000000000000000000000000000000000000000602082015250565b60006146fa6024836131ad565b91506147058261469e565b604082019050919050565b60006020820190508181036000830152614729816146ed565b9050919050565b600061473b82613254565b915061474683613254565b925082820190508082111561475e5761475d61455e565b5b92915050565b7f4552433732313a20617070726f766520746f2063616c6c657200000000000000600082015250565b600061479a6019836131ad565b91506147a582614764565b602082019050919050565b600060208201905081810360008301526147c98161478d565b9050919050565b7f4552433732313a207472616e7366657220746f206e6f6e20455243373231526560008201527f63656976657220696d706c656d656e7465720000000000000000000000000000602082015250565b600061482c6032836131ad565b9150614837826147d0565b604082019050919050565b6000602082019050818103600083015261485b8161481f565b9050919050565b7f4e487b7100000000000000000000000000000000000000000000000000000000600052601260045260246000fd5b600060808201905081810360008301526148ab81876131f9565b905081810360208301526148bf81866131f9565b905081810360408301526148d381856131f9565b90506148e2606083018461362a565b95945050505050565b60006148f682613254565b915061490183613254565b92508261491157614910614862565b5b828204905092915050565b600061492782613254565b915061493283613254565b925082820261494081613254565b915082820484148315176149575761495661455e565b5b5092915050565b7f45524337323155524953746f726167653a2055524920736574206f66206e6f6e60008201527f6578697374656e7420746f6b656e000000000000000000000000000000000000602082015250565b60006149ba602e836131ad565b91506149c58261495e565b604082019050919050565b600060208201905081810360008301526149e9816149ad565b9050919050565b6149f9826131a2565b67ffffffffffffffff811115614a1257614a11613489565b5b614a1c8254613a3e565b614a27828285613f48565b600060209050601f831160018114614a5a5760008415614a48578287015190505b614a528582613fb9565b865550614aba565b601f198416614a6886613e29565b60005b82811015614a9057848901518255600182019150602085019450602081019050614a6b565b86831015614aad5784890151614aa9601f891682613f9b565b8355505b6001600288020188555050505b505050505050565b60006060820190508181036000830152614adc81866131f9565b9050614aeb602083018561362a565b8181036040830152614afd81846131f9565b9050949350505050565b6000614b1282613254565b9150614b1d83613254565b9250828203905081811115614b3557614b3461455e565b5b92915050565b600081519050919050565b600082825260208201905092915050565b6000614b6282614b3b565b614b6c8185614b46565b9350614b7c8185602086016131be565b614b85816131e8565b840191505092915050565b6000608082019050614ba560008301876132e9565b614bb260208301866132e9565b614bbf604083018561362a565b8181036060830152614bd18184614b57565b905095945050505050565b600081519050614beb81613113565b92915050565b600060208284031215614c0757614c066130dd565b5b6000614c1584828501614bdc565b91505092915050565b7f4552433732313a206d696e7420746f20746865207a65726f2061646472657373600082015250565b6000614c546020836131ad565b9150614c5f82614c1e565b602082019050919050565b60006020820190508181036000830152614c8381614c47565b9050919050565b7f4552433732313a20746f6b656e20616c7265616479206d696e74656400000000600082015250565b6000614cc0601c836131ad565b9150614ccb82614c8a565b602082019050919050565b60006020820190508181036000830152614cef81614cb3565b905091905056fe0a2d2d2d2d2d2d2d2d2d2d2d2d2d2d2d2d2d2d2d2d2d2d2d2d2d2d2d2d2d2d2d2d2d2d2d2d2d2d2d2d2d2d2d2d2d2d2d2d2d2d2d2d2d2d2d2d526567697573746572696e672025732e2573206f6e2074686520636f6e7472616374207769746820746f6b656e49442025642d2d2d2d2d2d2d2d2d2d2d2d2d2d2d2d2d2d2d2d2d2d2d2d2d2d2d2d2d2d2d2d2d2d2d2d2d2d2d2d2d2d2d2d2d2d2d2d2d2d2d2d2d2d2d2d0a4142434445464748494a4b4c4d4e4f505152535455565758595a6162636465666768696a6b6c6d6e6f707172737475767778797a303132333435363738392b2f476574797474696e6720616c6c206e616d65732066726f6d20636f6e7472616374a2646970667358221220a47713afcb0eebdc7a42bc735f8e252225e1e41fab5247b02d978f692aeb93e564736f6c634300081100333c73766720786d6c6e733d22687474703a2f2f7777772e77332e6f72672f323030302f737667222077696474683d2232373022206865696768743d22323730222066696c6c3d226e6f6e65223e3c706174682066696c6c3d2275726c282342292220643d224d302030683237307632373048307a222f3e3c646566733e3c66696c7465722069643d22412220636f6c6f722d696e746572706f6c6174696f6e2d66696c746572733d2273524742222066696c746572556e6974733d227573657253706163654f6e55736522206865696768743d22323730222077696474683d22323730223e3c666544726f70536861646f772064783d2230222064793d22312220737464446576696174696f6e3d22322220666c6f6f642d6f7061636974793d222e323235222077696474683d223230302522206865696768743d2232303025222f3e3c2f66696c7465723e3c2f646566733e3c7061746820643d224d37322e3836332034322e393439632d2e3636382d2e3338372d312e3432362d2e35392d322e3139372d2e3539732d312e3532392e3230342d322e3139372e35396c2d31302e30383120362e3033322d362e383520332e3933342d31302e30383120362e303332632d2e3636382e3338372d312e3432362e35392d322e3139372e3539732d312e3532392d2e3230342d322e3139372d2e35396c2d382e3031332d342e37323161342e353220342e35322030203020312d312e3538392d312e363136632d2e3338342d2e3636352d2e3539342d312e3431382d2e3630382d322e313837762d392e3331632d2e3031332d2e3737352e3138352d312e3533382e3537322d322e32303861342e323520342e323520302030203120312e3632352d312e3539356c372e3838342d342e3539632e3636382d2e33383720312e3432362d2e353920322e3139372d2e353973312e3532392e32303420322e3139372e35396c372e38383420342e353961342e353220342e353220302030203120312e35383920312e363136632e3338342e3636352e35393420312e3431382e36303820322e31383776362e3033326c362e38352d342e303635762d362e303332632e3031332d2e3737352d2e3138352d312e3533382d2e3537322d322e32303861342e323520342e32352030203020302d312e3632352d312e3539354c34312e3435362032342e3539632d2e3636382d2e3338372d312e3432362d2e35392d322e3139372d2e3539732d312e3532392e3230342d322e3139372e35396c2d31342e38363420382e36353561342e323520342e32352030203020302d312e36323520312e353935632d2e3338372e36372d2e35383520312e3433342d2e35373220322e3230387631372e343431632d2e3031332e3737352e31383520312e3533382e35373220322e32303861342e323520342e323520302030203020312e36323520312e3539356c31342e38363420382e363535632e3636382e33383720312e3432362e353920322e3139372e353973312e3532392d2e32303420322e3139372d2e35396c31302e3038312d352e39303120362e38352d342e3036352031302e3038312d352e393031632e3636382d2e33383720312e3432362d2e353920322e3139372d2e353973312e3532392e32303420322e3139372e35396c372e38383420342e353961342e353220342e353220302030203120312e35383920312e363136632e3338342e3636352e35393420312e3431382e36303820322e31383776392e333131632e3031332e3737352d2e31383520312e3533382d2e35373220322e32303861342e323520342e32352030203020312d312e36323520312e3539356c2d372e38383420342e373231632d2e3636382e3338372d312e3432362e35392d322e3139372e3539732d312e3532392d2e3230342d322e3139372d2e35396c2d372e3838342d342e353961342e353220342e35322030203020312d312e3538392d312e363136632d2e3338352d2e3636352d2e3539342d312e3431382d2e3630382d322e313837762d362e3033326c2d362e383520342e30363576362e303332632d2e3031332e3737352e31383520312e3533382e35373220322e32303861342e323520342e323520302030203020312e36323520312e3539356c31342e38363420382e363535632e3636382e33383720312e3432362e353920322e3139372e353973312e3532392d2e32303420322e3139372d2e35396c31342e3836342d382e363535632e3635372d2e33393420312e3230342d2e393520312e3538392d312e363136732e3539342d312e3431382e3630392d322e3138375635352e353338632e3031332d2e3737352d2e3138352d312e3533382d2e3537322d322e32303861342e323520342e32352030203020302d312e3632352d312e3539356c2d31342e3939332d382e3738367a222066696c6c3d2223666666222f3e3c646566733e3c6c696e6561724772616469656e742069643d2242222078313d2230222079313d2230222078323d22323730222079323d2232373022206772616469656e74556e6974733d227573657253706163654f6e557365223e3c73746f702073746f702d636f6c6f723d2223636235656565222f3e3c73746f70206f66667365743d2231222073746f702d636f6c6f723d2223306364376534222073746f702d6f7061636974793d222e3939222f3e3c2f6c696e6561724772616469656e743e3c2f646566733e3c7465787420783d2233322e352220793d223233312220666f6e742d73697a653d223237222066696c6c3d2223666666222066696c7465723d2275726c282341292220666f6e742d66616d696c793d22506c7573204a616b617274612053616e732c44656a6156752053616e732c4e6f746f20436f6c6f7220456d6f6a692c4170706c6520436f6c6f7220456d6f6a692c73616e732d73657269662220666f6e742d7765696768743d22626f6c64223e",
  "linkReferences": {},
  "deployedLinkReferences": {}
}